{
  "_format": "hh-sol-artifact-1",
  "contractName": "FertilizerSupplyChain",
  "sourceName": "contracts/contract.sol",
  "abi": [
    {
      "anonymous": false,
      "inputs": [
        {
          "indexed": true,
          "internalType": "address",
          "name": "farmerAddress",
          "type": "address"
        },
        {
          "indexed": false,
          "internalType": "string",
          "name": "name",
          "type": "string"
        },
        {
          "indexed": false,
          "internalType": "string",
          "name": "message",
          "type": "string"
        }
      ],
      "name": "FarmerRegistered",
      "type": "event"
    },
    {
      "anonymous": false,
      "inputs": [
        {
          "indexed": false,
          "internalType": "string",
          "name": "fertilizerNumber",
          "type": "string"
        },
        {
          "indexed": true,
          "internalType": "address",
          "name": "manufacturerAddress",
          "type": "address"
        },
        {
          "indexed": false,
          "internalType": "string",
          "name": "message",
          "type": "string"
        }
      ],
      "name": "FertilizerRegistered",
      "type": "event"
    },
    {
      "anonymous": false,
      "inputs": [
        {
          "indexed": true,
          "internalType": "address",
          "name": "manufacturerAddress",
          "type": "address"
        },
        {
          "indexed": false,
          "internalType": "string",
          "name": "name",
          "type": "string"
        },
        {
          "indexed": false,
          "internalType": "string",
          "name": "message",
          "type": "string"
        }
      ],
      "name": "ManufacturerRegistered",
      "type": "event"
    },
    {
      "anonymous": false,
      "inputs": [
        {
          "indexed": false,
          "internalType": "string",
          "name": "fertilizerNumber",
          "type": "string"
        },
        {
          "indexed": true,
          "internalType": "address",
          "name": "farmerAddress",
          "type": "address"
        },
        {
          "indexed": false,
          "internalType": "uint256",
          "name": "rating",
          "type": "uint256"
        },
        {
          "indexed": false,
          "internalType": "string",
          "name": "review",
          "type": "string"
        }
      ],
      "name": "ReviewSubmitted",
      "type": "event"
    },
    {
      "inputs": [
        {
          "internalType": "string",
          "name": "_fertilizerNumber",
          "type": "string"
        }
      ],
      "name": "checkFertilizer",
      "outputs": [
        {
          "internalType": "string",
          "name": "",
          "type": "string"
        },
        {
          "internalType": "string",
          "name": "",
          "type": "string"
        },
        {
          "internalType": "string",
          "name": "",
          "type": "string"
        },
        {
          "internalType": "string",
          "name": "",
          "type": "string"
        },
        {
          "internalType": "uint256",
          "name": "",
          "type": "uint256"
        },
        {
          "internalType": "bool",
          "name": "",
          "type": "bool"
        },
        {
          "internalType": "uint256",
          "name": "",
          "type": "uint256"
        },
        {
          "internalType": "string",
          "name": "",
          "type": "string"
        },
        {
          "internalType": "address",
          "name": "",
          "type": "address"
        },
        {
          "internalType": "uint256",
          "name": "",
          "type": "uint256"
        },
        {
          "internalType": "uint256",
          "name": "",
          "type": "uint256"
        }
      ],
      "stateMutability": "view",
      "type": "function"
    },
    {
      "inputs": [
        {
          "internalType": "address",
          "name": "_manufacturerAddress",
          "type": "address"
        }
      ],
      "name": "checkManufacturer",
      "outputs": [
        {
          "internalType": "string",
          "name": "",
          "type": "string"
        },
        {
          "internalType": "string",
          "name": "",
          "type": "string"
        },
        {
          "internalType": "string",
          "name": "",
          "type": "string"
        },
        {
          "internalType": "string",
          "name": "",
          "type": "string"
        },
        {
          "internalType": "bool",
          "name": "",
          "type": "bool"
        },
        {
          "internalType": "uint256",
          "name": "",
          "type": "uint256"
        },
        {
          "internalType": "uint256",
          "name": "",
          "type": "uint256"
        }
      ],
      "stateMutability": "view",
      "type": "function"
    },
    {
      "inputs": [
        {
          "internalType": "address",
          "name": "",
          "type": "address"
        }
      ],
      "name": "farmers",
      "outputs": [
        {
          "internalType": "string",
          "name": "name",
          "type": "string"
        },
        {
          "internalType": "address",
          "name": "farmerAddress",
          "type": "address"
        },
        {
          "internalType": "bool",
          "name": "isRegistered",
          "type": "bool"
        },
        {
          "internalType": "string",
          "name": "uniqueIdentifier",
          "type": "string"
        },
        {
          "internalType": "bytes32",
          "name": "passwordHash",
          "type": "bytes32"
        }
      ],
      "stateMutability": "view",
      "type": "function"
    },
    {
      "inputs": [
        {
          "internalType": "string",
          "name": "",
          "type": "string"
        }
      ],
      "name": "fertilizers",
      "outputs": [
        {
          "internalType": "string",
          "name": "fertilizerNumber",
          "type": "string"
        },
        {
          "internalType": "string",
          "name": "productDescription",
          "type": "string"
        },
        {
          "internalType": "string",
          "name": "nutrients",
          "type": "string"
        },
        {
          "internalType": "string",
          "name": "size",
          "type": "string"
        },
        {
          "internalType": "uint256",
          "name": "quantity",
          "type": "uint256"
        },
        {
          "internalType": "bool",
          "name": "isLocallyManufactured",
          "type": "bool"
        },
        {
          "internalType": "uint256",
          "name": "cost",
          "type": "uint256"
        },
        {
          "internalType": "string",
          "name": "subsidyInfo",
          "type": "string"
        },
        {
          "internalType": "address",
          "name": "manufacturerAddress",
          "type": "address"
        },
        {
          "internalType": "uint256",
          "name": "totalRating",
          "type": "uint256"
        },
        {
          "internalType": "uint256",
          "name": "numberOfRatings",
          "type": "uint256"
        }
      ],
      "stateMutability": "view",
      "type": "function"
    },
    {
      "inputs": [
        {
          "internalType": "uint256",
          "name": "",
          "type": "uint256"
        }
      ],
      "name": "manufacturerAddresses",
      "outputs": [
        {
          "internalType": "address",
          "name": "",
          "type": "address"
        }
      ],
      "stateMutability": "view",
      "type": "function"
    },
    {
      "inputs": [
        {
          "internalType": "address",
          "name": "",
          "type": "address"
        }
      ],
      "name": "manufacturers",
      "outputs": [
        {
          "internalType": "string",
          "name": "name",
          "type": "string"
        },
        {
          "internalType": "string",
          "name": "businessName",
          "type": "string"
        },
        {
          "internalType": "string",
          "name": "rcNumber",
          "type": "string"
        },
        {
          "internalType": "string",
          "name": "locationAddress",
          "type": "string"
        },
        {
          "internalType": "address",
          "name": "manufacturerAddress",
          "type": "address"
        },
        {
          "internalType": "bool",
          "name": "isActive",
          "type": "bool"
        },
        {
          "internalType": "uint256",
          "name": "totalRating",
          "type": "uint256"
        },
        {
          "internalType": "uint256",
          "name": "numberOfRatings",
          "type": "uint256"
        },
        {
          "internalType": "string",
          "name": "email",
          "type": "string"
        },
        {
          "internalType": "bytes32",
          "name": "passwordHash",
          "type": "bytes32"
        }
      ],
      "stateMutability": "view",
      "type": "function"
    },
    {
      "inputs": [
        {
          "internalType": "string",
          "name": "_name",
          "type": "string"
        },
        {
          "internalType": "string",
          "name": "_uniqueIdentifier",
          "type": "string"
        },
        {
          "internalType": "string",
          "name": "_password",
          "type": "string"
        }
      ],
      "name": "registerFarmer",
      "outputs": [
        {
          "internalType": "string",
          "name": "",
          "type": "string"
        }
      ],
      "stateMutability": "nonpayable",
      "type": "function"
    },
    {
      "inputs": [
        {
          "internalType": "string",
          "name": "_fertilizerNumber",
          "type": "string"
        },
        {
          "internalType": "string",
          "name": "_productDescription",
          "type": "string"
        },
        {
          "internalType": "string",
          "name": "_nutrients",
          "type": "string"
        },
        {
          "internalType": "string",
          "name": "_size",
          "type": "string"
        },
        {
          "internalType": "uint256",
          "name": "_quantity",
          "type": "uint256"
        },
        {
          "internalType": "bool",
          "name": "_isLocallyManufactured",
          "type": "bool"
        },
        {
          "internalType": "uint256",
          "name": "_cost",
          "type": "uint256"
        },
        {
          "internalType": "string",
          "name": "_subsidyInfo",
          "type": "string"
        }
      ],
      "name": "registerFertilizer",
      "outputs": [],
      "stateMutability": "nonpayable",
      "type": "function"
    },
    {
      "inputs": [
        {
          "internalType": "string",
          "name": "_name",
          "type": "string"
        },
        {
          "internalType": "string",
          "name": "_businessName",
          "type": "string"
        },
        {
          "internalType": "string",
          "name": "_rcNumber",
          "type": "string"
        },
        {
          "internalType": "string",
          "name": "_locationAddress",
          "type": "string"
        },
        {
          "internalType": "string",
          "name": "_email",
          "type": "string"
        },
        {
          "internalType": "string",
          "name": "_password",
          "type": "string"
        }
      ],
      "name": "registerManufacturer",
      "outputs": [
        {
          "internalType": "string",
          "name": "",
          "type": "string"
        }
      ],
      "stateMutability": "nonpayable",
      "type": "function"
    },
    {
      "inputs": [
        {
          "internalType": "string",
          "name": "_fertilizerNumber",
          "type": "string"
        },
        {
          "internalType": "uint256",
          "name": "_rating",
          "type": "uint256"
        },
        {
          "internalType": "string",
          "name": "_review",
          "type": "string"
        }
      ],
      "name": "submitReview",
      "outputs": [],
      "stateMutability": "nonpayable",
      "type": "function"
    },
    {
      "inputs": [
        {
          "internalType": "string",
          "name": "_uniqueIdentifier",
          "type": "string"
        },
        {
          "internalType": "string",
          "name": "_password",
          "type": "string"
        }
      ],
      "name": "verifyFarmerLogin",
      "outputs": [
        {
          "internalType": "bool",
          "name": "",
          "type": "bool"
        },
        {
          "internalType": "string",
          "name": "",
          "type": "string"
        }
      ],
      "stateMutability": "view",
      "type": "function"
    },
    {
      "inputs": [
        {
          "internalType": "string",
          "name": "_email",
          "type": "string"
        },
        {
          "internalType": "string",
          "name": "_password",
          "type": "string"
        }
      ],
      "name": "verifyManufacturerLogin",
      "outputs": [
        {
          "internalType": "bool",
          "name": "",
          "type": "bool"
        },
        {
          "internalType": "string",
          "name": "",
          "type": "string"
        }
      ],
      "stateMutability": "view",
      "type": "function"
    }
  ],
  "bytecode": "0x608060405234801561001057600080fd5b50613b37806100206000396000f3fe608060405234801561001057600080fd5b50600436106100b45760003560e01c8063672130a711610071578063672130a7146101d45780636b5eb09c1461020e578063b41513f514610247578063c74ced1c14610263578063e1ee28f814610299578063fc2a469b146102c9576100b4565b806301a68c01146100b9578063177af15b146100e95780631c356f0a1461012357806329a566d21461013f578063401b21681461016f5780634493abe9146101a3575b600080fd5b6100d360048036038101906100ce9190612da6565b6102fa565b6040516100e09190613330565b60405180910390f35b61010360048036038101906100fe91906129a0565b610339565b60405161011a9b9a99989796959493929190613548565b60405180910390f35b61013d60048036038101906101389190612bfd565b61067e565b005b61015960048036038101906101549190612a4d565b610952565b604051610166919061337b565b60405180910390f35b61018960048036038101906101849190612977565b610c59565b60405161019a95949392919061339d565b60405180910390f35b6101bd60048036038101906101b891906129e1565b610dcc565b6040516101cb92919061334b565b60405180910390f35b6101ee60048036038101906101e991906129a0565b6112e8565b6040516102059b9a99989796959493929190613548565b60405180910390f35b61022860048036038101906102239190612977565b6116fa565b60405161023e9a999897969594939291906133fe565b60405180910390f35b610261600480360381019061025c9190612d27565b611a23565b005b61027d60048036038101906102789190612977565b611ce6565b60405161029097969594939291906134bd565b60405180910390f35b6102b360048036038101906102ae9190612ae4565b6120e4565b6040516102c0919061337b565b60405180910390f35b6102e360048036038101906102de91906129e1565b6124dd565b6040516102f192919061334b565b60405180910390f35b6003818154811061030a57600080fd5b906000526020600020016000915054906101000a900473ffffffffffffffffffffffffffffffffffffffff1681565b600281805160208101820180518482526020830160208501208183528095505050505050600091509050806000018054610372906139ec565b80601f016020809104026020016040519081016040528092919081815260200182805461039e906139ec565b80156103eb5780601f106103c0576101008083540402835291602001916103eb565b820191906000526020600020905b8154815290600101906020018083116103ce57829003601f168201915b505050505090806001018054610400906139ec565b80601f016020809104026020016040519081016040528092919081815260200182805461042c906139ec565b80156104795780601f1061044e57610100808354040283529160200191610479565b820191906000526020600020905b81548152906001019060200180831161045c57829003601f168201915b50505050509080600201805461048e906139ec565b80601f01602080910402602001604051908101604052809291908181526020018280546104ba906139ec565b80156105075780601f106104dc57610100808354040283529160200191610507565b820191906000526020600020905b8154815290600101906020018083116104ea57829003601f168201915b50505050509080600301805461051c906139ec565b80601f0160208091040260200160405190810160405280929190818152602001828054610548906139ec565b80156105955780601f1061056a57610100808354040283529160200191610595565b820191906000526020600020905b81548152906001019060200180831161057857829003601f168201915b5050505050908060040154908060050160009054906101000a900460ff16908060060154908060070180546105c9906139ec565b80601f01602080910402602001604051908101604052809291908181526020018280546105f5906139ec565b80156106425780601f1061061757610100808354040283529160200191610642565b820191906000526020600020905b81548152906001019060200180831161062557829003601f168201915b5050505050908060080160009054906101000a900473ffffffffffffffffffffffffffffffffffffffff169080600901549080600a015490508b565b6000803373ffffffffffffffffffffffffffffffffffffffff1673ffffffffffffffffffffffffffffffffffffffff16815260200190815260200160002060040160149054906101000a900460ff1661070c576040517f08c379a0000000000000000000000000000000000000000000000000000000008152600401610703906137da565b60405180910390fd5b6000885111610750576040517f08c379a00000000000000000000000000000000000000000000000000000000081526004016107479061373a565b60405180910390fd5b60405180610160016040528089815260200188815260200187815260200186815260200185815260200184151581526020018381526020018281526020013373ffffffffffffffffffffffffffffffffffffffff1681526020016000815260200160008152506002896040516107c69190613319565b908152602001604051809103902060008201518160000190805190602001906107f092919061282d565b50602082015181600101908051906020019061080d92919061282d565b50604082015181600201908051906020019061082a92919061282d565b50606082015181600301908051906020019061084792919061282d565b506080820151816004015560a08201518160050160006101000a81548160ff02191690831515021790555060c0820151816006015560e082015181600701908051906020019061089892919061282d565b506101008201518160080160006101000a81548173ffffffffffffffffffffffffffffffffffffffff021916908373ffffffffffffffffffffffffffffffffffffffff160217905550610120820151816009015561014082015181600a01559050503373ffffffffffffffffffffffffffffffffffffffff167fe905291c06506a820a26068ef2a9f8e94b888a21441e438aa67c0126ded8cb33896040516109409190613680565b60405180910390a25050505050505050565b606060001515600160003373ffffffffffffffffffffffffffffffffffffffff1673ffffffffffffffffffffffffffffffffffffffff16815260200190815260200160002060010160149054906101000a900460ff161515146109ea576040517f08c379a00000000000000000000000000000000000000000000000000000000081526004016109e19061375a565b60405180910390fd5b6000835111610a2e576040517f08c379a0000000000000000000000000000000000000000000000000000000008152600401610a25906137fa565b60405180910390fd5b600682511015610a73576040517f08c379a0000000000000000000000000000000000000000000000000000000008152600401610a6a9061371a565b60405180910390fd5b600082604051602001610a869190613319565b6040516020818303038152906040528051906020012090506040518060a001604052808681526020013373ffffffffffffffffffffffffffffffffffffffff16815260200160011515815260200185815260200182815250600160003373ffffffffffffffffffffffffffffffffffffffff1673ffffffffffffffffffffffffffffffffffffffff1681526020019081526020016000206000820151816000019080519060200190610b3992919061282d565b5060208201518160010160006101000a81548173ffffffffffffffffffffffffffffffffffffffff021916908373ffffffffffffffffffffffffffffffffffffffff16021790555060408201518160010160146101000a81548160ff0219169083151502179055506060820151816002019080519060200190610bbd92919061282d565b50608082015181600301559050503373ffffffffffffffffffffffffffffffffffffffff167f851322da2e414e9965ce5ecef6890861b23f27fe84bd9646b7de8aea70efcb5686604051610c119190613616565b60405180910390a26040518060400160405280601f81526020017f4661726d657220726567697374726174696f6e207375636365737366756c21008152509150509392505050565b6001602052806000526040600020600091509050806000018054610c7c906139ec565b80601f0160208091040260200160405190810160405280929190818152602001828054610ca8906139ec565b8015610cf55780601f10610cca57610100808354040283529160200191610cf5565b820191906000526020600020905b815481529060010190602001808311610cd857829003601f168201915b5050505050908060010160009054906101000a900473ffffffffffffffffffffffffffffffffffffffff16908060010160149054906101000a900460ff1690806002018054610d43906139ec565b80601f0160208091040260200160405190810160405280929190818152602001828054610d6f906139ec565b8015610dbc5780601f10610d9157610100808354040283529160200191610dbc565b820191906000526020600020905b815481529060010190602001808311610d9f57829003601f168201915b5050505050908060030154905085565b6000606060008060003373ffffffffffffffffffffffffffffffffffffffff1673ffffffffffffffffffffffffffffffffffffffff16815260200190815260200160002060405180610140016040529081600082018054610e2c906139ec565b80601f0160208091040260200160405190810160405280929190818152602001828054610e58906139ec565b8015610ea55780601f10610e7a57610100808354040283529160200191610ea5565b820191906000526020600020905b815481529060010190602001808311610e8857829003601f168201915b50505050508152602001600182018054610ebe906139ec565b80601f0160208091040260200160405190810160405280929190818152602001828054610eea906139ec565b8015610f375780601f10610f0c57610100808354040283529160200191610f37565b820191906000526020600020905b815481529060010190602001808311610f1a57829003601f168201915b50505050508152602001600282018054610f50906139ec565b80601f0160208091040260200160405190810160405280929190818152602001828054610f7c906139ec565b8015610fc95780601f10610f9e57610100808354040283529160200191610fc9565b820191906000526020600020905b815481529060010190602001808311610fac57829003601f168201915b50505050508152602001600382018054610fe2906139ec565b80601f016020809104026020016040519081016040528092919081815260200182805461100e906139ec565b801561105b5780601f106110305761010080835404028352916020019161105b565b820191906000526020600020905b81548152906001019060200180831161103e57829003601f168201915b505050505081526020016004820160009054906101000a900473ffffffffffffffffffffffffffffffffffffffff1673ffffffffffffffffffffffffffffffffffffffff1673ffffffffffffffffffffffffffffffffffffffff1681526020016004820160149054906101000a900460ff1615151515815260200160058201548152602001600682015481526020016007820180546110f9906139ec565b80601f0160208091040260200160405190810160405280929190818152602001828054611125906139ec565b80156111725780601f1061114757610100808354040283529160200191611172565b820191906000526020600020905b81548152906001019060200180831161115557829003601f168201915b5050505050815260200160088201548152505090508060a001516111cb576040517f08c379a00000000000000000000000000000000000000000000000000000000081526004016111c29061385a565b60405180910390fd5b6000846040516020016111de9190613319565b604051602081830303815290604052805190602001209050856040516020016112079190613319565b604051602081830303815290604052805190602001208261010001516040516020016112339190613319565b6040516020818303038152906040528051906020012014801561125a575080826101200151145b156112a25760016040518060400160405280601181526020017f4c6f67696e207375636365737366756c210000000000000000000000000000008152509350935050506112e1565b60006040518060400160405280601a81526020017f496e76616c696420656d61696c206f722070617373776f72642e0000000000008152509350935050505b9250929050565b6060806060806000806000606060008060008060028d60405161130b9190613319565b908152602001604051809103902060405180610160016040529081600082018054611335906139ec565b80601f0160208091040260200160405190810160405280929190818152602001828054611361906139ec565b80156113ae5780601f10611383576101008083540402835291602001916113ae565b820191906000526020600020905b81548152906001019060200180831161139157829003601f168201915b505050505081526020016001820180546113c7906139ec565b80601f01602080910402602001604051908101604052809291908181526020018280546113f3906139ec565b80156114405780601f1061141557610100808354040283529160200191611440565b820191906000526020600020905b81548152906001019060200180831161142357829003601f168201915b50505050508152602001600282018054611459906139ec565b80601f0160208091040260200160405190810160405280929190818152602001828054611485906139ec565b80156114d25780601f106114a7576101008083540402835291602001916114d2565b820191906000526020600020905b8154815290600101906020018083116114b557829003601f168201915b505050505081526020016003820180546114eb906139ec565b80601f0160208091040260200160405190810160405280929190818152602001828054611517906139ec565b80156115645780601f1061153957610100808354040283529160200191611564565b820191906000526020600020905b81548152906001019060200180831161154757829003601f168201915b50505050508152602001600482015481526020016005820160009054906101000a900460ff16151515158152602001600682015481526020016007820180546115ac906139ec565b80601f01602080910402602001604051908101604052809291908181526020018280546115d8906139ec565b80156116255780601f106115fa57610100808354040283529160200191611625565b820191906000526020600020905b81548152906001019060200180831161160857829003601f168201915b505050505081526020016008820160009054906101000a900473ffffffffffffffffffffffffffffffffffffffff1673ffffffffffffffffffffffffffffffffffffffff1673ffffffffffffffffffffffffffffffffffffffff16815260200160098201548152602001600a820154815250509050806000015181602001518260400151836060015184608001518560a001518660c001518760e001518861010001518961012001518a61014001519b509b509b509b509b509b509b509b509b509b509b505091939597999b90929496989a50565b600060205280600052604060002060009150905080600001805461171d906139ec565b80601f0160208091040260200160405190810160405280929190818152602001828054611749906139ec565b80156117965780601f1061176b57610100808354040283529160200191611796565b820191906000526020600020905b81548152906001019060200180831161177957829003601f168201915b5050505050908060010180546117ab906139ec565b80601f01602080910402602001604051908101604052809291908181526020018280546117d7906139ec565b80156118245780601f106117f957610100808354040283529160200191611824565b820191906000526020600020905b81548152906001019060200180831161180757829003601f168201915b505050505090806002018054611839906139ec565b80601f0160208091040260200160405190810160405280929190818152602001828054611865906139ec565b80156118b25780601f10611887576101008083540402835291602001916118b2565b820191906000526020600020905b81548152906001019060200180831161189557829003601f168201915b5050505050908060030180546118c7906139ec565b80601f01602080910402602001604051908101604052809291908181526020018280546118f3906139ec565b80156119405780601f1061191557610100808354040283529160200191611940565b820191906000526020600020905b81548152906001019060200180831161192357829003601f168201915b5050505050908060040160009054906101000a900473ffffffffffffffffffffffffffffffffffffffff16908060040160149054906101000a900460ff169080600501549080600601549080600701805461199a906139ec565b80601f01602080910402602001604051908101604052809291908181526020018280546119c6906139ec565b8015611a135780601f106119e857610100808354040283529160200191611a13565b820191906000526020600020905b8154815290600101906020018083116119f657829003601f168201915b505050505090806008015490508a565b600160003373ffffffffffffffffffffffffffffffffffffffff1673ffffffffffffffffffffffffffffffffffffffff16815260200190815260200160002060010160149054906101000a900460ff16611ab2576040517f08c379a0000000000000000000000000000000000000000000000000000000008152600401611aa9906137ba565b60405180910390fd5b60018210158015611ac4575060058211155b611b03576040517f08c379a0000000000000000000000000000000000000000000000000000000008152600401611afa9061381a565b60405180910390fd5b6000600284604051611b159190613319565b90815260200160405180910390209050600073ffffffffffffffffffffffffffffffffffffffff168160080160009054906101000a900473ffffffffffffffffffffffffffffffffffffffff1673ffffffffffffffffffffffffffffffffffffffff161415611bb9576040517f08c379a0000000000000000000000000000000000000000000000000000000008152600401611bb0906136fa565b60405180910390fd5b82816009016000828254611bcd9190613902565b92505081905550600181600a016000828254611be99190613902565b9250508190555060008060008360080160009054906101000a900473ffffffffffffffffffffffffffffffffffffffff1673ffffffffffffffffffffffffffffffffffffffff1673ffffffffffffffffffffffffffffffffffffffff168152602001908152602001600020905083816005016000828254611c6a9190613902565b925050819055506001816006016000828254611c869190613902565b925050819055503373ffffffffffffffffffffffffffffffffffffffff167fafc51de376f75bd73597f1e93f6be5fc9f7871f8b3d553be4bb5c665dc31fc61868686604051611cd7939291906136b5565b60405180910390a25050505050565b6060806060806000806000806000808a73ffffffffffffffffffffffffffffffffffffffff1673ffffffffffffffffffffffffffffffffffffffff16815260200190815260200160002060405180610140016040529081600082018054611d4c906139ec565b80601f0160208091040260200160405190810160405280929190818152602001828054611d78906139ec565b8015611dc55780601f10611d9a57610100808354040283529160200191611dc5565b820191906000526020600020905b815481529060010190602001808311611da857829003601f168201915b50505050508152602001600182018054611dde906139ec565b80601f0160208091040260200160405190810160405280929190818152602001828054611e0a906139ec565b8015611e575780601f10611e2c57610100808354040283529160200191611e57565b820191906000526020600020905b815481529060010190602001808311611e3a57829003601f168201915b50505050508152602001600282018054611e70906139ec565b80601f0160208091040260200160405190810160405280929190818152602001828054611e9c906139ec565b8015611ee95780601f10611ebe57610100808354040283529160200191611ee9565b820191906000526020600020905b815481529060010190602001808311611ecc57829003601f168201915b50505050508152602001600382018054611f02906139ec565b80601f0160208091040260200160405190810160405280929190818152602001828054611f2e906139ec565b8015611f7b5780601f10611f5057610100808354040283529160200191611f7b565b820191906000526020600020905b815481529060010190602001808311611f5e57829003601f168201915b505050505081526020016004820160009054906101000a900473ffffffffffffffffffffffffffffffffffffffff1673ffffffffffffffffffffffffffffffffffffffff1673ffffffffffffffffffffffffffffffffffffffff1681526020016004820160149054906101000a900460ff161515151581526020016005820154815260200160068201548152602001600782018054612019906139ec565b80601f0160208091040260200160405190810160405280929190818152602001828054612045906139ec565b80156120925780601f1061206757610100808354040283529160200191612092565b820191906000526020600020905b81548152906001019060200180831161207557829003601f168201915b50505050508152602001600882015481525050905080600001518160200151826040015183606001518460a001518560c001518660e00151975097509750975097509750975050919395979092949650565b6060600083511161212a576040517f08c379a00000000000000000000000000000000000000000000000000000000081526004016121219061383a565b60405180910390fd5b60068251101561216f576040517f08c379a00000000000000000000000000000000000000000000000000000000081526004016121669061371a565b60405180910390fd5b600015156000803373ffffffffffffffffffffffffffffffffffffffff1673ffffffffffffffffffffffffffffffffffffffff16815260200190815260200160002060040160149054906101000a900460ff16151514612204576040517f08c379a00000000000000000000000000000000000000000000000000000000081526004016121fb9061377a565b60405180910390fd5b6000826040516020016122179190613319565b6040516020818303038152906040528051906020012090506040518061014001604052808981526020018881526020018781526020018681526020013373ffffffffffffffffffffffffffffffffffffffff1681526020016001151581526020016000815260200160008152602001858152602001828152506000803373ffffffffffffffffffffffffffffffffffffffff1673ffffffffffffffffffffffffffffffffffffffff16815260200190815260200160002060008201518160000190805190602001906122ea92919061282d565b50602082015181600101908051906020019061230792919061282d565b50604082015181600201908051906020019061232492919061282d565b50606082015181600301908051906020019061234192919061282d565b5060808201518160040160006101000a81548173ffffffffffffffffffffffffffffffffffffffff021916908373ffffffffffffffffffffffffffffffffffffffff16021790555060a08201518160040160146101000a81548160ff02191690831515021790555060c0820151816005015560e082015181600601556101008201518160070190805190602001906123da92919061282d565b5061012082015181600801559050506003339080600181540180825580915050600190039060005260206000200160009091909190916101000a81548173ffffffffffffffffffffffffffffffffffffffff021916908373ffffffffffffffffffffffffffffffffffffffff1602179055503373ffffffffffffffffffffffffffffffffffffffff167f0404b4c331fa7343824d265ca4ab3d731047810f3942b355247ae2c56511f3ce89604051612492919061364b565b60405180910390a26040518060400160405280601881526020017f526567697374726174696f6e207375636365737366756c2100000000000000008152509150509695505050505050565b600060606000600160003373ffffffffffffffffffffffffffffffffffffffff1673ffffffffffffffffffffffffffffffffffffffff1681526020019081526020016000206040518060a001604052908160008201805461253d906139ec565b80601f0160208091040260200160405190810160405280929190818152602001828054612569906139ec565b80156125b65780601f1061258b576101008083540402835291602001916125b6565b820191906000526020600020905b81548152906001019060200180831161259957829003601f168201915b505050505081526020016001820160009054906101000a900473ffffffffffffffffffffffffffffffffffffffff1673ffffffffffffffffffffffffffffffffffffffff1673ffffffffffffffffffffffffffffffffffffffff1681526020016001820160149054906101000a900460ff16151515158152602001600282018054612640906139ec565b80601f016020809104026020016040519081016040528092919081815260200182805461266c906139ec565b80156126b95780601f1061268e576101008083540402835291602001916126b9565b820191906000526020600020905b81548152906001019060200180831161269c57829003601f168201915b5050505050815260200160038201548152505090508060400151612712576040517f08c379a00000000000000000000000000000000000000000000000000000000081526004016127099061379a565b60405180910390fd5b6000846040516020016127259190613319565b6040516020818303038152906040528051906020012090508560405160200161274e9190613319565b6040516020818303038152906040528051906020012082606001516040516020016127799190613319565b6040516020818303038152906040528051906020012014801561279f5750808260800151145b156127e75760016040518060400160405280601181526020017f4c6f67696e207375636365737366756c21000000000000000000000000000000815250935093505050612826565b60006040518060400160405280601f81526020017f496e76616c6964206964656e746966696572206f722070617373776f72642e008152509350935050505b9250929050565b828054612839906139ec565b90600052602060002090601f01602090048101928261285b57600085556128a2565b82601f1061287457805160ff19168380011785556128a2565b828001600101855582156128a2579182015b828111156128a1578251825591602001919060010190612886565b5b5090506128af91906128b3565b5090565b5b808211156128cc5760008160009055506001016128b4565b5090565b60006128e36128de846138ab565b61387a565b9050828152602081018484840111156128fb57600080fd5b6129068482856139aa565b509392505050565b60008135905061291d81613abc565b92915050565b60008135905061293281613ad3565b92915050565b600082601f83011261294957600080fd5b81356129598482602086016128d0565b91505092915050565b60008135905061297181613aea565b92915050565b60006020828403121561298957600080fd5b60006129978482850161290e565b91505092915050565b6000602082840312156129b257600080fd5b600082013567ffffffffffffffff8111156129cc57600080fd5b6129d884828501612938565b91505092915050565b600080604083850312156129f457600080fd5b600083013567ffffffffffffffff811115612a0e57600080fd5b612a1a85828601612938565b925050602083013567ffffffffffffffff811115612a3757600080fd5b612a4385828601612938565b9150509250929050565b600080600060608486031215612a6257600080fd5b600084013567ffffffffffffffff811115612a7c57600080fd5b612a8886828701612938565b935050602084013567ffffffffffffffff811115612aa557600080fd5b612ab186828701612938565b925050604084013567ffffffffffffffff811115612ace57600080fd5b612ada86828701612938565b9150509250925092565b60008060008060008060c08789031215612afd57600080fd5b600087013567ffffffffffffffff811115612b1757600080fd5b612b2389828a01612938565b965050602087013567ffffffffffffffff811115612b4057600080fd5b612b4c89828a01612938565b955050604087013567ffffffffffffffff811115612b6957600080fd5b612b7589828a01612938565b945050606087013567ffffffffffffffff811115612b9257600080fd5b612b9e89828a01612938565b935050608087013567ffffffffffffffff811115612bbb57600080fd5b612bc789828a01612938565b92505060a087013567ffffffffffffffff811115612be457600080fd5b612bf089828a01612938565b9150509295509295509295565b600080600080600080600080610100898b031215612c1a57600080fd5b600089013567ffffffffffffffff811115612c3457600080fd5b612c408b828c01612938565b985050602089013567ffffffffffffffff811115612c5d57600080fd5b612c698b828c01612938565b975050604089013567ffffffffffffffff811115612c8657600080fd5b612c928b828c01612938565b965050606089013567ffffffffffffffff811115612caf57600080fd5b612cbb8b828c01612938565b9550506080612ccc8b828c01612962565b94505060a0612cdd8b828c01612923565b93505060c0612cee8b828c01612962565b92505060e089013567ffffffffffffffff811115612d0b57600080fd5b612d178b828c01612938565b9150509295985092959890939650565b600080600060608486031215612d3c57600080fd5b600084013567ffffffffffffffff811115612d5657600080fd5b612d6286828701612938565b9350506020612d7386828701612962565b925050604084013567ffffffffffffffff811115612d9057600080fd5b612d9c86828701612938565b9150509250925092565b600060208284031215612db857600080fd5b6000612dc684828501612962565b91505092915050565b612dd881613958565b82525050565b612de78161396a565b82525050565b612df681613976565b82525050565b6000612e07826138db565b612e1181856138e6565b9350612e218185602086016139b9565b612e2a81613aab565b840191505092915050565b6000612e40826138db565b612e4a81856138f7565b9350612e5a8185602086016139b9565b80840191505092915050565b6000612e736019836138e6565b91507f46657274696c697a657220646f6573206e6f74206578697374000000000000006000830152602082019050919050565b6000612eb36026836138e6565b91507f50617373776f7264206d757374206265206174206c656173742036206368617260008301527f61637465727300000000000000000000000000000000000000000000000000006020830152604082019050919050565b6000612f19601d836138e6565b91507f46657274696c697a6572206e756d6265722069732072657175697265640000006000830152602082019050919050565b6000612f596019836138e6565b91507f4661726d657220616c72656164792072656769737465726564000000000000006000830152602082019050919050565b6000612f99601f836138e6565b91507f4d616e75666163747572657220616c72656164792072656769737465726564006000830152602082019050919050565b6000612fd96015836138e6565b91507f4661726d6572206e6f74207265676973746572656400000000000000000000006000830152602082019050919050565b6000613019601f836138e6565b91507f4661726d6572207375636365737366756c6c7920726567697374657265642e006000830152602082019050919050565b6000613059602a836138e6565b91507f4f6e6c792072656769737465726564206661726d6572732063616e207375626d60008301527f69742072657669657773000000000000000000000000000000000000000000006020830152604082019050919050565b60006130bf6025836138e6565b91507f4f6e6c792072656769737465726564206d616e7566616374757265727320616c60008301527f6c6f7765640000000000000000000000000000000000000000000000000000006020830152604082019050919050565b60006131256025836138e6565b91507f4d616e756661637475726572207375636365737366756c6c792072656769737460008301527f657265642e0000000000000000000000000000000000000000000000000000006020830152604082019050919050565b600061318b6021836138e6565b91507f556e69717565206964656e7469666965722063616e6e6f7420626520656d707460008301527f79000000000000000000000000000000000000000000000000000000000000006020830152604082019050919050565b60006131f1601e836138e6565b91507f526174696e67206d757374206265206265747765656e203120616e64203500006000830152602082019050919050565b60006132316023836138e6565b91507f46657274696c697a6572207375636365737366756c6c7920726567697374657260008301527f65642e00000000000000000000000000000000000000000000000000000000006020830152604082019050919050565b60006132976015836138e6565b91507f456d61696c2063616e6e6f7420626520656d70747900000000000000000000006000830152602082019050919050565b60006132d7601b836138e6565b91507f4d616e756661637475726572206e6f74207265676973746572656400000000006000830152602082019050919050565b613313816139a0565b82525050565b60006133258284612e35565b915081905092915050565b60006020820190506133456000830184612dcf565b92915050565b60006040820190506133606000830185612dde565b81810360208301526133728184612dfc565b90509392505050565b600060208201905081810360008301526133958184612dfc565b905092915050565b600060a08201905081810360008301526133b78188612dfc565b90506133c66020830187612dcf565b6133d36040830186612dde565b81810360608301526133e58185612dfc565b90506133f46080830184612ded565b9695505050505050565b6000610140820190508181036000830152613419818d612dfc565b9050818103602083015261342d818c612dfc565b90508181036040830152613441818b612dfc565b90508181036060830152613455818a612dfc565b90506134646080830189612dcf565b61347160a0830188612dde565b61347e60c083018761330a565b61348b60e083018661330a565b81810361010083015261349e8185612dfc565b90506134ae610120830184612ded565b9b9a5050505050505050505050565b600060e08201905081810360008301526134d7818a612dfc565b905081810360208301526134eb8189612dfc565b905081810360408301526134ff8188612dfc565b905081810360608301526135138187612dfc565b90506135226080830186612dde565b61352f60a083018561330a565b61353c60c083018461330a565b98975050505050505050565b6000610160820190508181036000830152613563818e612dfc565b90508181036020830152613577818d612dfc565b9050818103604083015261358b818c612dfc565b9050818103606083015261359f818b612dfc565b90506135ae608083018a61330a565b6135bb60a0830189612dde565b6135c860c083018861330a565b81810360e08301526135da8187612dfc565b90506135ea610100830186612dcf565b6135f861012083018561330a565b61360661014083018461330a565b9c9b505050505050505050505050565b600060408201905081810360008301526136308184612dfc565b905081810360208301526136438161300c565b905092915050565b600060408201905081810360008301526136658184612dfc565b9050818103602083015261367881613118565b905092915050565b6000604082019050818103600083015261369a8184612dfc565b905081810360208301526136ad81613224565b905092915050565b600060608201905081810360008301526136cf8186612dfc565b90506136de602083018561330a565b81810360408301526136f08184612dfc565b9050949350505050565b6000602082019050818103600083015261371381612e66565b9050919050565b6000602082019050818103600083015261373381612ea6565b9050919050565b6000602082019050818103600083015261375381612f0c565b9050919050565b6000602082019050818103600083015261377381612f4c565b9050919050565b6000602082019050818103600083015261379381612f8c565b9050919050565b600060208201905081810360008301526137b381612fcc565b9050919050565b600060208201905081810360008301526137d38161304c565b9050919050565b600060208201905081810360008301526137f3816130b2565b9050919050565b600060208201905081810360008301526138138161317e565b9050919050565b60006020820190508181036000830152613833816131e4565b9050919050565b600060208201905081810360008301526138538161328a565b9050919050565b60006020820190508181036000830152613873816132ca565b9050919050565b6000604051905081810181811067ffffffffffffffff821117156138a1576138a0613a7c565b5b8060405250919050565b600067ffffffffffffffff8211156138c6576138c5613a7c565b5b601f19601f8301169050602081019050919050565b600081519050919050565b600082825260208201905092915050565b600081905092915050565b600061390d826139a0565b9150613918836139a0565b9250827fffffffffffffffffffffffffffffffffffffffffffffffffffffffffffffffff0382111561394d5761394c613a1e565b5b828201905092915050565b600061396382613980565b9050919050565b60008115159050919050565b6000819050919050565b600073ffffffffffffffffffffffffffffffffffffffff82169050919050565b6000819050919050565b82818337600083830152505050565b60005b838110156139d75780820151818401526020810190506139bc565b838111156139e6576000848401525b50505050565b60006002820490506001821680613a0457607f821691505b60208210811415613a1857613a17613a4d565b5b50919050565b7f4e487b7100000000000000000000000000000000000000000000000000000000600052601160045260246000fd5b7f4e487b7100000000000000000000000000000000000000000000000000000000600052602260045260246000fd5b7f4e487b7100000000000000000000000000000000000000000000000000000000600052604160045260246000fd5b6000601f19601f8301169050919050565b613ac581613958565b8114613ad057600080fd5b50565b613adc8161396a565b8114613ae757600080fd5b50565b613af3816139a0565b8114613afe57600080fd5b5056fea26469706673582212204e1cdc88f6efd40205a70963164d79821485b962cfe785520142d263e9a346df64736f6c63430008000033",
  "linkReferences": {},
  "deployedLinkReferences": {}
}