{
  "_format": "hh-sol-artifact-1",
  "contractName": "FertilizerSupplyChain",
  "sourceName": "contracts/FertilizerSupplyChain.sol",
  "abi": [
    {
      "anonymous": false,
      "inputs": [
        {
          "indexed": false,
          "internalType": "string",
          "name": "fertilizerNumber",
          "type": "string"
        },
        {
          "indexed": true,
          "internalType": "address",
          "name": "manufacturerAddress",
          "type": "address"
        },
        {
          "indexed": false,
          "internalType": "string",
          "name": "message",
          "type": "string"
        }
      ],
      "name": "FertilizerRegistered",
      "type": "event"
    },
    {
      "anonymous": false,
      "inputs": [
        {
          "indexed": true,
          "internalType": "address",
          "name": "manufacturerAddress",
          "type": "address"
        },
        {
          "indexed": false,
          "internalType": "string",
          "name": "name",
          "type": "string"
        },
        {
          "indexed": false,
          "internalType": "string",
          "name": "message",
          "type": "string"
        }
      ],
      "name": "ManufacturerRegistered",
      "type": "event"
    },
    {
      "inputs": [
        {
          "internalType": "string",
          "name": "_fertilizerNumber",
          "type": "string"
        }
      ],
      "name": "checkFertilizer",
      "outputs": [
        {
          "internalType": "string",
          "name": "",
          "type": "string"
        },
        {
          "internalType": "string",
          "name": "",
          "type": "string"
        },
        {
          "internalType": "string",
          "name": "",
          "type": "string"
        },
        {
          "internalType": "string",
          "name": "",
          "type": "string"
        },
        {
          "internalType": "uint256",
          "name": "",
          "type": "uint256"
        },
        {
          "internalType": "bool",
          "name": "",
          "type": "bool"
        },
        {
          "internalType": "uint256",
          "name": "",
          "type": "uint256"
        },
        {
          "internalType": "string",
          "name": "",
          "type": "string"
        },
        {
          "internalType": "address",
          "name": "",
          "type": "address"
        }
      ],
      "stateMutability": "view",
      "type": "function"
    },
    {
      "inputs": [
        {
          "internalType": "address",
          "name": "_manufacturerAddress",
          "type": "address"
        }
      ],
      "name": "checkManufacturer",
      "outputs": [
        {
          "internalType": "string",
          "name": "",
          "type": "string"
        },
        {
          "internalType": "string",
          "name": "",
          "type": "string"
        },
        {
          "internalType": "string",
          "name": "",
          "type": "string"
        },
        {
          "internalType": "string",
          "name": "",
          "type": "string"
        },
        {
          "internalType": "bool",
          "name": "",
          "type": "bool"
        }
      ],
      "stateMutability": "view",
      "type": "function"
    },
    {
      "inputs": [
        {
          "internalType": "string",
          "name": "",
          "type": "string"
        }
      ],
      "name": "fertilizers",
      "outputs": [
        {
          "internalType": "string",
          "name": "fertilizerNumber",
          "type": "string"
        },
        {
          "internalType": "string",
          "name": "productDescription",
          "type": "string"
        },
        {
          "internalType": "string",
          "name": "nutrients",
          "type": "string"
        },
        {
          "internalType": "string",
          "name": "size",
          "type": "string"
        },
        {
          "internalType": "uint256",
          "name": "quantity",
          "type": "uint256"
        },
        {
          "internalType": "bool",
          "name": "isLocallyManufactured",
          "type": "bool"
        },
        {
          "internalType": "uint256",
          "name": "cost",
          "type": "uint256"
        },
        {
          "internalType": "string",
          "name": "subsidyInfo",
          "type": "string"
        },
        {
          "internalType": "address",
          "name": "manufacturerAddress",
          "type": "address"
        }
      ],
      "stateMutability": "view",
      "type": "function"
    },
    {
      "inputs": [
        {
          "internalType": "uint256",
          "name": "",
          "type": "uint256"
        }
      ],
      "name": "manufacturerAddresses",
      "outputs": [
        {
          "internalType": "address",
          "name": "",
          "type": "address"
        }
      ],
      "stateMutability": "view",
      "type": "function"
    },
    {
      "inputs": [
        {
          "internalType": "address",
          "name": "",
          "type": "address"
        }
      ],
      "name": "manufacturers",
      "outputs": [
        {
          "internalType": "string",
          "name": "name",
          "type": "string"
        },
        {
          "internalType": "string",
          "name": "businessName",
          "type": "string"
        },
        {
          "internalType": "string",
          "name": "rcNumber",
          "type": "string"
        },
        {
          "internalType": "string",
          "name": "locationAddress",
          "type": "string"
        },
        {
          "internalType": "address",
          "name": "manufacturerAddress",
          "type": "address"
        },
        {
          "internalType": "bool",
          "name": "isActive",
          "type": "bool"
        }
      ],
      "stateMutability": "view",
      "type": "function"
    },
    {
      "inputs": [
        {
          "internalType": "string",
          "name": "_fertilizerNumber",
          "type": "string"
        },
        {
          "internalType": "string",
          "name": "_productDescription",
          "type": "string"
        },
        {
          "internalType": "string",
          "name": "_nutrients",
          "type": "string"
        },
        {
          "internalType": "string",
          "name": "_size",
          "type": "string"
        },
        {
          "internalType": "uint256",
          "name": "_quantity",
          "type": "uint256"
        },
        {
          "internalType": "bool",
          "name": "_isLocallyManufactured",
          "type": "bool"
        },
        {
          "internalType": "uint256",
          "name": "_cost",
          "type": "uint256"
        },
        {
          "internalType": "string",
          "name": "_subsidyInfo",
          "type": "string"
        }
      ],
      "name": "registerFertilizer",
      "outputs": [],
      "stateMutability": "nonpayable",
      "type": "function"
    },
    {
      "inputs": [
        {
          "internalType": "string",
          "name": "_name",
          "type": "string"
        },
        {
          "internalType": "string",
          "name": "_businessName",
          "type": "string"
        },
        {
          "internalType": "string",
          "name": "_rcNumber",
          "type": "string"
        },
        {
          "internalType": "string",
          "name": "_locationAddress",
          "type": "string"
        }
      ],
      "name": "registerManufacturer",
      "outputs": [],
      "stateMutability": "nonpayable",
      "type": "function"
    }
  ],
  "bytecode": "0x608060405234801561001057600080fd5b50611e7a806100206000396000f3fe608060405234801561001057600080fd5b506004361061007d5760003560e01c8063672130a71161005b578063672130a7146101065780636b5eb09c1461013e578063970a7b8214610173578063c74ced1c1461018f5761007d565b806301a68c0114610082578063177af15b146100b25780631c356f0a146100ea575b600080fd5b61009c600480360381019061009791906117a2565b6101c3565b6040516100a991906119eb565b60405180910390f35b6100cc60048036038101906100c79190611574565b610202565b6040516100e199989796959493929190611af2565b60405180910390f35b61010460048036038101906100ff9190611678565b61053b565b005b610120600480360381019061011b9190611574565b6107a7565b60405161013599989796959493929190611af2565b60405180910390f35b6101586004803603810190610153919061154b565b610b90565b60405161016a96959493929190611a06565b60405180910390f35b61018d600480360381019061018891906115b5565b610e19565b005b6101a960048036038101906101a4919061154b565b6110c7565b6040516101ba959493929190611a83565b60405180910390f35b600281815481106101d357600080fd5b906000526020600020016000915054906101000a900473ffffffffffffffffffffffffffffffffffffffff1681565b60018180516020810182018051848252602083016020850120818352809550505050505060009150905080600001805461023b90611d5e565b80601f016020809104026020016040519081016040528092919081815260200182805461026790611d5e565b80156102b45780601f10610289576101008083540402835291602001916102b4565b820191906000526020600020905b81548152906001019060200180831161029757829003601f168201915b5050505050908060010180546102c990611d5e565b80601f01602080910402602001604051908101604052809291908181526020018280546102f590611d5e565b80156103425780601f1061031757610100808354040283529160200191610342565b820191906000526020600020905b81548152906001019060200180831161032557829003601f168201915b50505050509080600201805461035790611d5e565b80601f016020809104026020016040519081016040528092919081815260200182805461038390611d5e565b80156103d05780601f106103a5576101008083540402835291602001916103d0565b820191906000526020600020905b8154815290600101906020018083116103b357829003601f168201915b5050505050908060030180546103e590611d5e565b80601f016020809104026020016040519081016040528092919081815260200182805461041190611d5e565b801561045e5780601f106104335761010080835404028352916020019161045e565b820191906000526020600020905b81548152906001019060200180831161044157829003601f168201915b5050505050908060040154908060050160009054906101000a900460ff169080600601549080600701805461049290611d5e565b80601f01602080910402602001604051908101604052809291908181526020018280546104be90611d5e565b801561050b5780601f106104e05761010080835404028352916020019161050b565b820191906000526020600020905b8154815290600101906020018083116104ee57829003601f168201915b5050505050908060080160009054906101000a900473ffffffffffffffffffffffffffffffffffffffff16905089565b6000803373ffffffffffffffffffffffffffffffffffffffff1673ffffffffffffffffffffffffffffffffffffffff16815260200190815260200160002060040160149054906101000a900460ff166105c9576040517f08c379a00000000000000000000000000000000000000000000000000000000081526004016105c090611c2c565b60405180910390fd5b60405180610120016040528089815260200188815260200187815260200186815260200185815260200184151581526020018381526020018281526020013373ffffffffffffffffffffffffffffffffffffffff1681525060018960405161063191906119d4565b9081526020016040518091039020600082015181600001908051906020019061065b929190611401565b506020820151816001019080519060200190610678929190611401565b506040820151816002019080519060200190610695929190611401565b5060608201518160030190805190602001906106b2929190611401565b506080820151816004015560a08201518160050160006101000a81548160ff02191690831515021790555060c0820151816006015560e0820151816007019080519060200190610703929190611401565b506101008201518160080160006101000a81548173ffffffffffffffffffffffffffffffffffffffff021916908373ffffffffffffffffffffffffffffffffffffffff1602179055509050503373ffffffffffffffffffffffffffffffffffffffff167fe905291c06506a820a26068ef2a9f8e94b888a21441e438aa67c0126ded8cb33896040516107959190611bd7565b60405180910390a25050505050505050565b6060806060806000806000606060008060018b6040516107c791906119d4565b9081526020016040518091039020604051806101200160405290816000820180546107f190611d5e565b80601f016020809104026020016040519081016040528092919081815260200182805461081d90611d5e565b801561086a5780601f1061083f5761010080835404028352916020019161086a565b820191906000526020600020905b81548152906001019060200180831161084d57829003601f168201915b5050505050815260200160018201805461088390611d5e565b80601f01602080910402602001604051908101604052809291908181526020018280546108af90611d5e565b80156108fc5780601f106108d1576101008083540402835291602001916108fc565b820191906000526020600020905b8154815290600101906020018083116108df57829003601f168201915b5050505050815260200160028201805461091590611d5e565b80601f016020809104026020016040519081016040528092919081815260200182805461094190611d5e565b801561098e5780601f106109635761010080835404028352916020019161098e565b820191906000526020600020905b81548152906001019060200180831161097157829003601f168201915b505050505081526020016003820180546109a790611d5e565b80601f01602080910402602001604051908101604052809291908181526020018280546109d390611d5e565b8015610a205780601f106109f557610100808354040283529160200191610a20565b820191906000526020600020905b815481529060010190602001808311610a0357829003601f168201915b50505050508152602001600482015481526020016005820160009054906101000a900460ff1615151515815260200160068201548152602001600782018054610a6890611d5e565b80601f0160208091040260200160405190810160405280929190818152602001828054610a9490611d5e565b8015610ae15780601f10610ab657610100808354040283529160200191610ae1565b820191906000526020600020905b815481529060010190602001808311610ac457829003601f168201915b505050505081526020016008820160009054906101000a900473ffffffffffffffffffffffffffffffffffffffff1673ffffffffffffffffffffffffffffffffffffffff1673ffffffffffffffffffffffffffffffffffffffff16815250509050806000015181602001518260400151836060015184608001518560a001518660c001518760e00151886101000151995099509950995099509950995099509950509193959799909294969850565b6000602052806000526040600020600091509050806000018054610bb390611d5e565b80601f0160208091040260200160405190810160405280929190818152602001828054610bdf90611d5e565b8015610c2c5780601f10610c0157610100808354040283529160200191610c2c565b820191906000526020600020905b815481529060010190602001808311610c0f57829003601f168201915b505050505090806001018054610c4190611d5e565b80601f0160208091040260200160405190810160405280929190818152602001828054610c6d90611d5e565b8015610cba5780601f10610c8f57610100808354040283529160200191610cba565b820191906000526020600020905b815481529060010190602001808311610c9d57829003601f168201915b505050505090806002018054610ccf90611d5e565b80601f0160208091040260200160405190810160405280929190818152602001828054610cfb90611d5e565b8015610d485780601f10610d1d57610100808354040283529160200191610d48565b820191906000526020600020905b815481529060010190602001808311610d2b57829003601f168201915b505050505090806003018054610d5d90611d5e565b80601f0160208091040260200160405190810160405280929190818152602001828054610d8990611d5e565b8015610dd65780601f10610dab57610100808354040283529160200191610dd6565b820191906000526020600020905b815481529060010190602001808311610db957829003601f168201915b5050505050908060040160009054906101000a900473ffffffffffffffffffffffffffffffffffffffff16908060040160149054906101000a900460ff16905086565b600015156000803373ffffffffffffffffffffffffffffffffffffffff1673ffffffffffffffffffffffffffffffffffffffff16815260200190815260200160002060040160149054906101000a900460ff16151514610eae576040517f08c379a0000000000000000000000000000000000000000000000000000000008152600401610ea590611c0c565b60405180910390fd5b6040518060c001604052808581526020018481526020018381526020018281526020013373ffffffffffffffffffffffffffffffffffffffff168152602001600115158152506000803373ffffffffffffffffffffffffffffffffffffffff1673ffffffffffffffffffffffffffffffffffffffff1681526020019081526020016000206000820151816000019080519060200190610f4e929190611401565b506020820151816001019080519060200190610f6b929190611401565b506040820151816002019080519060200190610f88929190611401565b506060820151816003019080519060200190610fa5929190611401565b5060808201518160040160006101000a81548173ffffffffffffffffffffffffffffffffffffffff021916908373ffffffffffffffffffffffffffffffffffffffff16021790555060a08201518160040160146101000a81548160ff0219169083151502179055509050506002339080600181540180825580915050600190039060005260206000200160009091909190916101000a81548173ffffffffffffffffffffffffffffffffffffffff021916908373ffffffffffffffffffffffffffffffffffffffff1602179055503373ffffffffffffffffffffffffffffffffffffffff167f0404b4c331fa7343824d265ca4ab3d731047810f3942b355247ae2c56511f3ce856040516110b99190611ba2565b60405180910390a250505050565b6060806060806000806000808873ffffffffffffffffffffffffffffffffffffffff1673ffffffffffffffffffffffffffffffffffffffff1681526020019081526020016000206040518060c001604052908160008201805461112990611d5e565b80601f016020809104026020016040519081016040528092919081815260200182805461115590611d5e565b80156111a25780601f10611177576101008083540402835291602001916111a2565b820191906000526020600020905b81548152906001019060200180831161118557829003601f168201915b505050505081526020016001820180546111bb90611d5e565b80601f01602080910402602001604051908101604052809291908181526020018280546111e790611d5e565b80156112345780601f1061120957610100808354040283529160200191611234565b820191906000526020600020905b81548152906001019060200180831161121757829003601f168201915b5050505050815260200160028201805461124d90611d5e565b80601f016020809104026020016040519081016040528092919081815260200182805461127990611d5e565b80156112c65780601f1061129b576101008083540402835291602001916112c6565b820191906000526020600020905b8154815290600101906020018083116112a957829003601f168201915b505050505081526020016003820180546112df90611d5e565b80601f016020809104026020016040519081016040528092919081815260200182805461130b90611d5e565b80156113585780601f1061132d57610100808354040283529160200191611358565b820191906000526020600020905b81548152906001019060200180831161133b57829003601f168201915b505050505081526020016004820160009054906101000a900473ffffffffffffffffffffffffffffffffffffffff1673ffffffffffffffffffffffffffffffffffffffff1673ffffffffffffffffffffffffffffffffffffffff1681526020016004820160149054906101000a900460ff161515151581525050905080600001518160200151826040015183606001518460a00151955095509550955095505091939590929450565b82805461140d90611d5e565b90600052602060002090601f01602090048101928261142f5760008555611476565b82601f1061144857805160ff1916838001178555611476565b82800160010185558215611476579182015b8281111561147557825182559160200191906001019061145a565b5b5090506114839190611487565b5090565b5b808211156114a0576000816000905550600101611488565b5090565b60006114b76114b284611c7d565b611c4c565b9050828152602081018484840111156114cf57600080fd5b6114da848285611d1c565b509392505050565b6000813590506114f181611dff565b92915050565b60008135905061150681611e16565b92915050565b600082601f83011261151d57600080fd5b813561152d8482602086016114a4565b91505092915050565b60008135905061154581611e2d565b92915050565b60006020828403121561155d57600080fd5b600061156b848285016114e2565b91505092915050565b60006020828403121561158657600080fd5b600082013567ffffffffffffffff8111156115a057600080fd5b6115ac8482850161150c565b91505092915050565b600080600080608085870312156115cb57600080fd5b600085013567ffffffffffffffff8111156115e557600080fd5b6115f18782880161150c565b945050602085013567ffffffffffffffff81111561160e57600080fd5b61161a8782880161150c565b935050604085013567ffffffffffffffff81111561163757600080fd5b6116438782880161150c565b925050606085013567ffffffffffffffff81111561166057600080fd5b61166c8782880161150c565b91505092959194509250565b600080600080600080600080610100898b03121561169557600080fd5b600089013567ffffffffffffffff8111156116af57600080fd5b6116bb8b828c0161150c565b985050602089013567ffffffffffffffff8111156116d857600080fd5b6116e48b828c0161150c565b975050604089013567ffffffffffffffff81111561170157600080fd5b61170d8b828c0161150c565b965050606089013567ffffffffffffffff81111561172a57600080fd5b6117368b828c0161150c565b95505060806117478b828c01611536565b94505060a06117588b828c016114f7565b93505060c06117698b828c01611536565b92505060e089013567ffffffffffffffff81111561178657600080fd5b6117928b828c0161150c565b9150509295985092959890939650565b6000602082840312156117b457600080fd5b60006117c284828501611536565b91505092915050565b6117d481611cd4565b82525050565b6117e381611ce6565b82525050565b60006117f482611cad565b6117fe8185611cb8565b935061180e818560208601611d2b565b61181781611dee565b840191505092915050565b600061182d82611cad565b6118378185611cc9565b9350611847818560208601611d2b565b80840191505092915050565b6000611860601f83611cb8565b91507f4d616e75666163747572657220616c72656164792072656769737465726564006000830152602082019050919050565b60006118a0603683611cb8565b91507f4f6e6c792072656769737465726564206d616e7566616374757265727320636160008301527f6e2072656769737465722066657274696c697a657273000000000000000000006020830152604082019050919050565b6000611906602583611cb8565b91507f4d616e756661637475726572207375636365737366756c6c792072656769737460008301527f657265642e0000000000000000000000000000000000000000000000000000006020830152604082019050919050565b600061196c602383611cb8565b91507f46657274696c697a6572207375636365737366756c6c7920726567697374657260008301527f65642e00000000000000000000000000000000000000000000000000000000006020830152604082019050919050565b6119ce81611d12565b82525050565b60006119e08284611822565b915081905092915050565b6000602082019050611a0060008301846117cb565b92915050565b600060c0820190508181036000830152611a2081896117e9565b90508181036020830152611a3481886117e9565b90508181036040830152611a4881876117e9565b90508181036060830152611a5c81866117e9565b9050611a6b60808301856117cb565b611a7860a08301846117da565b979650505050505050565b600060a0820190508181036000830152611a9d81886117e9565b90508181036020830152611ab181876117e9565b90508181036040830152611ac581866117e9565b90508181036060830152611ad981856117e9565b9050611ae860808301846117da565b9695505050505050565b6000610120820190508181036000830152611b0d818c6117e9565b90508181036020830152611b21818b6117e9565b90508181036040830152611b35818a6117e9565b90508181036060830152611b4981896117e9565b9050611b5860808301886119c5565b611b6560a08301876117da565b611b7260c08301866119c5565b81810360e0830152611b8481856117e9565b9050611b946101008301846117cb565b9a9950505050505050505050565b60006040820190508181036000830152611bbc81846117e9565b90508181036020830152611bcf816118f9565b905092915050565b60006040820190508181036000830152611bf181846117e9565b90508181036020830152611c048161195f565b905092915050565b60006020820190508181036000830152611c2581611853565b9050919050565b60006020820190508181036000830152611c4581611893565b9050919050565b6000604051905081810181811067ffffffffffffffff82111715611c7357611c72611dbf565b5b8060405250919050565b600067ffffffffffffffff821115611c9857611c97611dbf565b5b601f19601f8301169050602081019050919050565b600081519050919050565b600082825260208201905092915050565b600081905092915050565b6000611cdf82611cf2565b9050919050565b60008115159050919050565b600073ffffffffffffffffffffffffffffffffffffffff82169050919050565b6000819050919050565b82818337600083830152505050565b60005b83811015611d49578082015181840152602081019050611d2e565b83811115611d58576000848401525b50505050565b60006002820490506001821680611d7657607f821691505b60208210811415611d8a57611d89611d90565b5b50919050565b7f4e487b7100000000000000000000000000000000000000000000000000000000600052602260045260246000fd5b7f4e487b7100000000000000000000000000000000000000000000000000000000600052604160045260246000fd5b6000601f19601f8301169050919050565b611e0881611cd4565b8114611e1357600080fd5b50565b611e1f81611ce6565b8114611e2a57600080fd5b50565b611e3681611d12565b8114611e4157600080fd5b5056fea264697066735822122020a54bec823aff3259130be0130d406d7bb3348f5660573434f67fb986300a4d64736f6c63430008000033",
  "linkReferences": {},
  "deployedLinkReferences": {}
}